{
  "contractName": "ETHswap",
  "abi": [
    {
      "inputs": [
        {
          "internalType": "contract HINtoken",
          "name": "_token",
          "type": "address"
        }
      ],
      "stateMutability": "nonpayable",
      "type": "constructor"
    },
    {
      "anonymous": false,
      "inputs": [
        {
          "indexed": false,
          "internalType": "address",
          "name": "account",
          "type": "address"
        },
        {
          "indexed": false,
          "internalType": "address",
          "name": "token",
          "type": "address"
        },
        {
          "indexed": false,
          "internalType": "uint256",
          "name": "amount",
          "type": "uint256"
        },
        {
          "indexed": false,
          "internalType": "uint256",
          "name": "rate",
          "type": "uint256"
        }
      ],
      "name": "tokenPurchased",
      "type": "event"
    },
    {
      "anonymous": false,
      "inputs": [
        {
          "indexed": false,
          "internalType": "address",
          "name": "account",
          "type": "address"
        },
        {
          "indexed": false,
          "internalType": "address",
          "name": "token",
          "type": "address"
        },
        {
          "indexed": false,
          "internalType": "uint256",
          "name": "amount",
          "type": "uint256"
        },
        {
          "indexed": false,
          "internalType": "uint256",
          "name": "rate",
          "type": "uint256"
        }
      ],
      "name": "tokenSold",
      "type": "event"
    },
    {
      "inputs": [],
      "name": "name",
      "outputs": [
        {
          "internalType": "string",
          "name": "",
          "type": "string"
        }
      ],
      "stateMutability": "view",
      "type": "function",
      "constant": true
    },
    {
      "inputs": [],
      "name": "rate",
      "outputs": [
        {
          "internalType": "uint256",
          "name": "",
          "type": "uint256"
        }
      ],
      "stateMutability": "view",
      "type": "function",
      "constant": true
    },
    {
      "inputs": [],
      "name": "token",
      "outputs": [
        {
          "internalType": "contract HINtoken",
          "name": "",
          "type": "address"
        }
      ],
      "stateMutability": "view",
      "type": "function",
      "constant": true
    },
    {
      "inputs": [],
      "name": "user",
      "outputs": [
        {
          "internalType": "address payable",
          "name": "",
          "type": "address"
        }
      ],
      "stateMutability": "view",
      "type": "function",
      "constant": true
    },
    {
      "inputs": [],
      "name": "buyTokens",
      "outputs": [],
      "stateMutability": "payable",
      "type": "function",
      "payable": true
    },
    {
      "inputs": [
        {
          "internalType": "uint256",
          "name": "_amount",
          "type": "uint256"
        }
      ],
      "name": "sellTokens",
      "outputs": [],
      "stateMutability": "payable",
      "type": "function",
      "payable": true
    }
  ],
  "bytecode": "0x60806040526040518060400160405280600781526020017f4554487377617000000000000000000000000000000000000000000000000000815250600090816200004a919062000386565b5060646002553480156200005d57600080fd5b506040516200105a3803806200105a8339818101604052810190620000839190620004eb565b80600160006101000a81548173ffffffffffffffffffffffffffffffffffffffff021916908373ffffffffffffffffffffffffffffffffffffffff16021790555033600360006101000a81548173ffffffffffffffffffffffffffffffffffffffff021916908373ffffffffffffffffffffffffffffffffffffffff160217905550506200051d565b600081519050919050565b7f4e487b7100000000000000000000000000000000000000000000000000000000600052604160045260246000fd5b7f4e487b7100000000000000000000000000000000000000000000000000000000600052602260045260246000fd5b600060028204905060018216806200018e57607f821691505b602082108103620001a457620001a362000146565b5b50919050565b60008190508160005260206000209050919050565b60006020601f8301049050919050565b600082821b905092915050565b6000600883026200020e7fffffffffffffffffffffffffffffffffffffffffffffffffffffffffffffffff82620001cf565b6200021a8683620001cf565b95508019841693508086168417925050509392505050565b6000819050919050565b6000819050919050565b600062000267620002616200025b8462000232565b6200023c565b62000232565b9050919050565b6000819050919050565b620002838362000246565b6200029b62000292826200026e565b848454620001dc565b825550505050565b600090565b620002b2620002a3565b620002bf81848462000278565b505050565b5b81811015620002e757620002db600082620002a8565b600181019050620002c5565b5050565b601f82111562000336576200030081620001aa565b6200030b84620001bf565b810160208510156200031b578190505b620003336200032a85620001bf565b830182620002c4565b50505b505050565b600082821c905092915050565b60006200035b600019846008026200033b565b1980831691505092915050565b600062000376838362000348565b9150826002028217905092915050565b62000391826200010c565b67ffffffffffffffff811115620003ad57620003ac62000117565b5b620003b9825462000175565b620003c6828285620002eb565b600060209050601f831160018114620003fe5760008415620003e9578287015190505b620003f5858262000368565b86555062000465565b601f1984166200040e86620001aa565b60005b82811015620004385784890151825560018201915060208501945060208101905062000411565b8683101562000458578489015162000454601f89168262000348565b8355505b6001600288020188555050505b505050505050565b600080fd5b600073ffffffffffffffffffffffffffffffffffffffff82169050919050565b60006200049f8262000472565b9050919050565b6000620004b38262000492565b9050919050565b620004c581620004a6565b8114620004d157600080fd5b50565b600081519050620004e581620004ba565b92915050565b6000602082840312156200050457620005036200046d565b5b60006200051484828501620004d4565b91505092915050565b610b2d806200052d6000396000f3fe6080604052600436106100555760003560e01c806306fdde031461005a5780632c4e722e146100855780634f8632ba146100b05780636c11bcd3146100db578063d0febe4c146100f7578063fc0c546a14610101575b600080fd5b34801561006657600080fd5b5061006f61012c565b60405161007c919061069c565b60405180910390f35b34801561009157600080fd5b5061009a6101ba565b6040516100a791906106d7565b60405180910390f35b3480156100bc57600080fd5b506100c56101c0565b6040516100d29190610733565b60405180910390f35b6100f560048036038101906100f0919061077f565b6101e6565b005b6100ff61041e565b005b34801561010d57600080fd5b506101166105dd565b604051610123919061080b565b60405180910390f35b6000805461013990610855565b80601f016020809104026020016040519081016040528092919081815260200182805461016590610855565b80156101b25780601f10610187576101008083540402835291602001916101b2565b820191906000526020600020905b81548152906001019060200180831161019557829003601f168201915b505050505081565b60025481565b600360009054906101000a900473ffffffffffffffffffffffffffffffffffffffff1681565b80600160009054906101000a900473ffffffffffffffffffffffffffffffffffffffff1673ffffffffffffffffffffffffffffffffffffffff166370a08231336040518263ffffffff1660e01b815260040161024291906108a7565b602060405180830381865afa15801561025f573d6000803e3d6000fd5b505050506040513d601f19601f8201168201806040525081019061028391906108d7565b101561028e57600080fd5b60006002548261029e9190610962565b9050804710156102ad57600080fd5b600160009054906101000a900473ffffffffffffffffffffffffffffffffffffffff1673ffffffffffffffffffffffffffffffffffffffff166323b872dd3330856040518463ffffffff1660e01b815260040161030c93929190610993565b6020604051808303816000875af115801561032b573d6000803e3d6000fd5b505050506040513d601f19601f8201168201806040525081019061034f9190610a02565b50600360009054906101000a900473ffffffffffffffffffffffffffffffffffffffff1673ffffffffffffffffffffffffffffffffffffffff166108fc829081150290604051600060405180830381858888f193505050501580156103b8573d6000803e3d6000fd5b507f5fc4872a04fc9ef9e80a6593db4a82874ea60fbc1f93bd4d0b7a00d4aa8ae55633600160009054906101000a900473ffffffffffffffffffffffffffffffffffffffff16846002546040516104129493929190610a2f565b60405180910390a15050565b60006002543461042e9190610a74565b905080600160009054906101000a900473ffffffffffffffffffffffffffffffffffffffff1673ffffffffffffffffffffffffffffffffffffffff166370a08231306040518263ffffffff1660e01b815260040161048c91906108a7565b602060405180830381865afa1580156104a9573d6000803e3d6000fd5b505050506040513d601f19601f820116820180604052508101906104cd91906108d7565b10156104d857600080fd5b600160009054906101000a900473ffffffffffffffffffffffffffffffffffffffff1673ffffffffffffffffffffffffffffffffffffffff1663a9059cbb33836040518363ffffffff1660e01b8152600401610535929190610ace565b6020604051808303816000875af1158015610554573d6000803e3d6000fd5b505050506040513d601f19601f820116820180604052508101906105789190610a02565b507f5fc4872a04fc9ef9e80a6593db4a82874ea60fbc1f93bd4d0b7a00d4aa8ae55633600160009054906101000a900473ffffffffffffffffffffffffffffffffffffffff16836002546040516105d29493929190610a2f565b60405180910390a150565b600160009054906101000a900473ffffffffffffffffffffffffffffffffffffffff1681565b600081519050919050565b600082825260208201905092915050565b60005b8381101561063d578082015181840152602081019050610622565b8381111561064c576000848401525b50505050565b6000601f19601f8301169050919050565b600061066e82610603565b610678818561060e565b935061068881856020860161061f565b61069181610652565b840191505092915050565b600060208201905081810360008301526106b68184610663565b905092915050565b6000819050919050565b6106d1816106be565b82525050565b60006020820190506106ec60008301846106c8565b92915050565b600073ffffffffffffffffffffffffffffffffffffffff82169050919050565b600061071d826106f2565b9050919050565b61072d81610712565b82525050565b60006020820190506107486000830184610724565b92915050565b600080fd5b61075c816106be565b811461076757600080fd5b50565b60008135905061077981610753565b92915050565b6000602082840312156107955761079461074e565b5b60006107a38482850161076a565b91505092915050565b6000819050919050565b60006107d16107cc6107c7846106f2565b6107ac565b6106f2565b9050919050565b60006107e3826107b6565b9050919050565b60006107f5826107d8565b9050919050565b610805816107ea565b82525050565b600060208201905061082060008301846107fc565b92915050565b7f4e487b7100000000000000000000000000000000000000000000000000000000600052602260045260246000fd5b6000600282049050600182168061086d57607f821691505b6020821081036108805761087f610826565b5b50919050565b6000610891826106f2565b9050919050565b6108a181610886565b82525050565b60006020820190506108bc6000830184610898565b92915050565b6000815190506108d181610753565b92915050565b6000602082840312156108ed576108ec61074e565b5b60006108fb848285016108c2565b91505092915050565b7f4e487b7100000000000000000000000000000000000000000000000000000000600052601260045260246000fd5b7f4e487b7100000000000000000000000000000000000000000000000000000000600052601160045260246000fd5b600061096d826106be565b9150610978836106be565b92508261098857610987610904565b5b828204905092915050565b60006060820190506109a86000830186610898565b6109b56020830185610898565b6109c260408301846106c8565b949350505050565b60008115159050919050565b6109df816109ca565b81146109ea57600080fd5b50565b6000815190506109fc816109d6565b92915050565b600060208284031215610a1857610a1761074e565b5b6000610a26848285016109ed565b91505092915050565b6000608082019050610a446000830187610898565b610a516020830186610898565b610a5e60408301856106c8565b610a6b60608301846106c8565b95945050505050565b6000610a7f826106be565b9150610a8a836106be565b9250817fffffffffffffffffffffffffffffffffffffffffffffffffffffffffffffffff0483118215151615610ac357610ac2610933565b5b828202905092915050565b6000604082019050610ae36000830185610898565b610af060208301846106c8565b939250505056fea2646970667358221220773a419d296c68f047333c0bd3b9ad2917ce4a6be1e8fe7d9f7eb35e4055319d64736f6c634300080f0033",
  "immutableReferences": {},
  "source": "// SPDX-License-Identifier: GPL-3.0\npragma solidity ^0.8.0;\n\nimport './HINtoken.sol';\n\ncontract ETHswap {\n\tstring public name = 'ETHswap';\n\tHINtoken public token;\n\tuint public rate = 100;\n\taddress payable public user;\n\n\t//event = a function to subsribe/listen to blockchain events giving u access to transaction\n\t//history, logs\n\tevent tokenPurchased(\n\t\taddress account,\n\t\t//who purchased\n\t\taddress token,\n\t\t//address of the token (what token was purchased)\n\t\tuint amount,\n\t\tuint rate\n);\n\tevent tokenSold(\n\t\taddress account,\n\t\t//who sold\n\t\taddress token,\n\t\t//address of the token (what token was purchased)\n\t\tuint amount,\n\t\tuint rate\n);\n\n\tconstructor(HINtoken _token) {\n\t\ttoken = _token;\n\t\tuser = payable(msg.sender);\n\t}\n\n\tfunction buyTokens() public payable {\n\t\tuint tokenAmount = msg.value * rate;\n\t\trequire(token.balanceOf(address(this)) >= tokenAmount);\n\t\ttoken.transfer(msg.sender, tokenAmount);\n\t\temit tokenPurchased(msg.sender, address(token), tokenAmount, rate);\n\t}\n\n\tfunction sellTokens(uint _amount) public payable{\n\t\trequire(token.balanceOf(msg.sender) >= _amount);\n\t\tuint etherAmount = _amount / rate;\n\t\trequire(address(this).balance >= etherAmount);\n\n\t\ttoken.transferFrom(msg.sender, address(this), _amount);\n\t\tuser.transfer(etherAmount);\n\t\t\n\t\temit tokenPurchased(msg.sender, address(token), _amount, rate);\n\n\n\n\n\t}\n}",
  "sourcePath": "/Users/hin/Desktop/web3/tuts/ethswap/src/contracts/ETHswap.sol",
  "compiler": {
    "name": "solc",
    "version": "0.8.15+commit.e14f2714.Emscripten.clang"
  },
  "schemaVersion": "3.4.8",
  "updatedAt": "2022-12-24T09:41:47.127Z",
  "networkType": "ethereum",
  "devdoc": {
    "kind": "dev",
    "methods": {},
    "version": 1
  },
  "userdoc": {
    "kind": "user",
    "methods": {},
    "version": 1
  }
}